{
  "contractName": "Migrations",
  "abi": [
    {
      "constant": true,
      "inputs": [],
      "name": "owner",
      "outputs": [
        {
          "name": "",
          "type": "address"
        }
      ],
      "payable": false,
      "stateMutability": "view",
      "type": "function"
    },
    {
      "inputs": [],
      "payable": false,
      "stateMutability": "nonpayable",
      "type": "constructor"
    }
  ],
  "bytecode": "0x608060405234801561001057600080fd5b5060008054600160a060020a0319163317905560c6806100316000396000f300608060405260043610603e5763ffffffff7c01000000000000000000000000000000000000000000000000000000006000350416638da5cb5b81146043575b600080fd5b348015604e57600080fd5b506055607e565b6040805173ffffffffffffffffffffffffffffffffffffffff9092168252519081900360200190f35b60005473ffffffffffffffffffffffffffffffffffffffff16815600a165627a7a72305820b64bd8d831a229c1c06225c982b36990bfb06be9c963fcf91b6b47a2dd74fd610029",
  "source": "pragma solidity ^0.4.24;\n\ncontract Migrations {\n\taddress public owner;\n\t\n\tmodifier restricted() {\n\t\tif (msg.sender == owner) _;\n\t}\n\n\tconstructor() public {\n\t\towner = msg.sender;\n\t}\n\n}\n",
  "sourcePath": "/media/mdakram28/Data/projects/blockchain/ngo-connect/contracts/Ngo.sol",
  "compiler": {
    "name": "solc",
    "version": "0.4.24+commit.e67f0147.Emscripten.clang"
  },
  "schemaVersion": "2.0.1",
  "updatedAt": "2018-10-10T13:52:18.135Z"
}